:060000000A128A11D62F3E
:100C1000F4340134FA34003464340034F501F31F41
:100C2000122E132E1A2EF209F309F20A0319F30AEF
:100C30000130F500F11F1D2E1E2E232EF009F109A3
:100C4000F00A0319F10A700871040319282E292EDD
:100C5000562E0130F400352E01300310F00DF10D49
:100C6000FF3E031D2D2E0130F407F11F382E392EC3
:100C70002C2E71087302031D3F2E70087202031C94
:100C8000422E432E492E7008F2027108031CF30312
:100C9000F30201300310F10CF00CFF3E031D4A2E4D
:100CA0000130F402031D552E562E392E75080319F6
:100CB0005A2E5B2E602EF209F309F20A0319F30A89
:100CC0007308F1007208F0000800FA01FB01D52E4C
:100CD0000430F9003D30F800F80B6C2EF90B6C2E47
:100CE000712E831203138618762E772EA12E413093
:100CF000F900EE30F800F80B7B2EF90B7B2E00008C
:100D0000831203138618852E862EA12E0330F00041
:100D10000030F1002D08013EF200003003180130D0
:100D2000F3000A128A110E260A128A117008831221
:100D30000313AD000130AE00861C9F2EA02E9C2E0A
:100D4000DF2E0618A42EA52ECF2E4130F900EE304E
:100D5000F800F80BA92EF90BA92E0000831203133B
:100D60000618B32EB42ECF2E0330F0000030F10061
:100D70002C08013EF200003003180130F3000A1283
:100D80008A110E260A128A11700883120313AC000E
:100D90000130AE00061CCD2ECE2ECA2EDF2E013025
:100DA000FA070318FB0A0030FB0777087B02031DD4
:100DB000DB2E76087A02031CDE2EDF2E682E08005A
:100DC0008316031388018312031388018316031308
:100DD0000614861483120313AE012C08FC007C0752
:100DE000203E840083130008AA00840A0008AB0098
:100DF0002D08031DFC2EFD2E1B2F043088002B0810
:100E0000F7002A08F6000A128A1165260A128A11CA
:100E1000831203132E0803190E2F0F2F102FEA2E03
:100E200088012B08F7002A08F6000A128A116526A5
:100E30000A128A11EA2E2D03031D1F2F202F332F94
:100E40000C3088002B08F7002A08F6000A128A11D5
:100E500065260A128A11831203132E080319312FF3
:100E6000322F102FEA2E02302D06031D382F392F76
:100E7000EA2E0230A6000030A7002708803AFF00C3
:100E800080307F02031D462F08302602031C492FA5
:100E90004A2F4B2F822F0130FC0083120313260AA6
:100EA000532F0310FC0DFF3E031D512F7C088800BB
:100EB0002B08F7002A08F6000A128A1165260A1282
:100EC0008A11831203132E080319672F682F692FC5
:100ED000822F88012B08F7002A08F6000A128A11CF
:100EE00065260A128A11831203132E080319792F1B
:100EF0007A2F7B2F822F0130A6070318A70A003014
:100F0000A7073D2F831203132E080319882F892F5B
:100F10008A2FEA2E0630A8000030A9002908803A5E
:100F2000FF0080307F02031D972F03302802031833
:100F30009A2F9B2F9C2FEA2E0130FC008312031363
:100F4000280AA42F0310FC0DFF3E031DA22F7C08CE
:100F500088002B08F7002A08F6000A128A11652675
:100F60000A128A11831203132E080319B82FB92FFE
:100F7000BA2FEA2E88012B08F7002A08F6000A1279
:100F80008A1165260A128A11831203132E08031987
:100F9000CA2FCB2FCC2FEA2EFF30A8070318A90A9F
:100FA000FF30A9078E2F0A128A1100280A128A110F
:100FB00008260A128A11A0000A128A1109260A12AA
:100FC0008A11A1000A128A110A260A128A11A200A5
:100FD0000A128A110B260A128A11A3000A128A1118
:100FE0000C260A128A11A4000A128A110D260A126E
:100FF0008A11A500AC01AD0183010A128A11E02E0D
:08400000FF3FFF3FFF3FFF3FC0
:02400E00723FFF
:00000001FF
