:060000000A128A110C280F
:10000800FE00030EF0000A08F1000A128A11342CCF
:100018000A128A110F280A128A1152260A128A1104
:10002800EE008313A0308400C2300A128A114A26D7
:100038000A128A11E901EA01EB01EC01ED01FA016A
:10004800FB0183010A128A113E2A0130831203132D
:10005800BB00B81B30283228013033280030BE00DE
:100068006A08BD006908BC003E0803193C283D2801
:100078005328FF30BC070318BD0AFF30BD073E08F0
:10008800031D472848284D282B30B9000030BA00F6
:1000980051282D30B9000030BA003908BE001F3091
:1000A800BF000030C00083160313C1019A28FF3037
:1000B800BF070318C00AFF30C0073F08A23E8400EC
:1000C8000A30F2000030F3003808F5003708F40071
:1000D8000A128A118A230A128A117308F90072080F
:1000E800F8000A128A1137260A128A117808303E57
:1000F8008313800083120313BB01FF30BC0703186E
:10010800BD0AFF30BD070A30F2000030F30038089E
:10011800F5003708F4000A128A11D0220A128A114F
:10012800730883120313B8007208B70083124008DB
:10013800803AFF0080307F02031DA42801303F026F
:10014800031CA728A828C8288312031337083804D3
:10015800031DAF28B0285B283B08031DB428B52829
:100168005B283D08803AFF0080307F02031DBE28CF
:1001780001303C02031CC128C228C828831203137B
:10018800ED18C728C8285B28831203133E080319F3
:10019800CE28CF28DB28FF30BF070318C00AFF305E
:1001A800C0073F08A23E84003E088313800035083C
:1001B800AE003608AF003F08A23EB0003D08B200CE
:1001C8003C08B1000A128A11E1230A128A110800B8
:1001D80083120313430884008313000884000A125F
:1001E8008A1168250A128A11253A031DFC28FD2860
:1001F80084294308840001308007E901EA010030BE
:10020800ED00FF30EB00FF30EC00CB012129ED14AD
:10021800430884000130800721290130CB002129BF
:1002280043088400000884000A128A1168250A120B
:100238008A11303A03190B2911294B08031925296A
:10024800262914294308F8004408F9000A128A11DB
:1002580033230A128A11790883120313EA007808F3
:10026800E900EA1F382939293F296D14E909EA0903
:10027800E90A0319EA0A4308840083130008CC003A
:100288004C0884000A128A1168250A128A11643AF5
:1002980003194F2950295C294C0884000A128A1135
:1002A80068250A128A11693A031D5B295C297C2991
:1002B800440884000008FF00023080077F0884009B
:1002C8000008C700840A0008C800430884004C08D6
:1002D800013E80004108B5004208B6004808B80051
:1002E8004708B7000A128A1129200A128A119D2983
:1002F80083120313430884000130831380079D2968
:1003080043088400000884000A128A1168250A122A
:100318008A11C500C6014508F2004608F3004108E5
:10032800F4004208F5000A128A119E210A128A1165
:100338007C290800740875040319A329A429AA298B
:1003480074087504031DA929AA29B12972080A127B
:100358008A1153260A128A113D2A7408093E83120B
:100368000313A00075080318013E003EA1002008F1
:1003780084008317211C83130008A200840A000844
:10038800A300220823040319CA29CB29FD297408CC
:10039800093EA00075080318013E003EA100200890
:1003A80084008317211C83130008A200840A000814
:1003B800A3007408023EA40075080318013E003E1D
:1003C800A500240884008317251C83130008A600B1
:1003D800840A0008A7002708803AA8002308803A62
:1003E8002802031DF929220826020318FC29FD29E1
:1003F8003D2A740884008317751C83130008831230
:100408000313A000840A0008A1007408023EA20099
:1004180075080318013E003EA300220884008317D4
:10042800231C831300082007A5002108A400031833
:10043800A40A801F202AA403831203132408A600F9
:10044800250884008317261C83137208800074080B
:10045800023EA00075080318013E003EA1002008D6
:1004680084008317211C831301308007840A031832
:10047800800A08000630831603139F00860187014F
:100488000630880083120313860187018801303003
:100498009000C2308F00F7308E000C1083160313C3
:1004A8000C140B178B178312031310140A128A11DA
:1004B80003250A128A11F501F50A01300A128A1178
:1004C80019260A128A111130F5008030F6000A1236
:1004D8008A1188250A128A118312031307118312BD
:1004E80003138818782A792A9D2A21308316031342
:1004F800D3007530D200D20B7F2AD30B7F2A842AEF
:10050800831203138818892A8A2A9D2A7B080319CB
:100518008E2A902A0130912A0030FB007B0C031CA4
:100528000711031807150130EE00881C9C2A9D2A24
:10053800992A0819A02AA12AC12A2130831603134F
:10054800D3007530D200D20BA72AD30BA72AAC2A26
:10055800831203130819B12AB22AC12AFB01FA012E
:1005680083160313A101A00183120313071101309D
:10057800EE00081DC02AC12ABD2A6E080319C52A23
:10058800C62A732AEE010A128A116C240A128A11E9
:10059800732A0A128A110C28F701F31FD42AD52AC4
:1005A800DC2AF209F309F20A0319F30A0130F70009
:1005B800F51FDF2AE02AE72AF409F509F40A0319E6
:1005C800F50A0130F706F801F901720873040319F6
:1005D800EE2AEF2A242B0130F600FB2A0130031003
:1005E800F20DF30DFF3E031DF32A0130F607F31F4A
:1005F800FE2AFF2AF22A01300310F80DF90DFF3EFA
:10060800031D002B73087502031D0C2B720874025E
:10061800031C0F2B102B172B7208F4027308031CF2
:10062800F503F502781401300310F30CF20CFF3EC9
:10063800031D182B0130F602031D232B242BFF2A40
:1006480077080319282B292B2E2BF809F909F80A02
:100658000319F90A7908F3007808F20008008312F0
:100668000313A101A2017808840083130008840001
:100678000A128A1168250A128A112A3A031D452B83
:10068800462B742B78088400013080077908840091
:100698000008FF00023080077F0884000008A100DE
:1006A800840A0008A200852B2208F3002108F20022
:1006B8000A30F4000030F5000A128A11AE250A1239
:1006C8008A118312031320087207A100003003184F
:1006D80001307307A2007808840001308313800773
:1006E80078088400000884000A128A1168250A1212
:1006F8008A11D03EA0000A302002031C842B852BCF
:10070800582B2208F9002108F8000800F701F51F06
:100718008E2B8F2B962BF409F509F40A0319F50A89
:100728000130F700F31F992B9A2B9F2BF209F3093D
:10073800F20A0319F30A720873040319A42BA52BF0
:10074800D22B0130F600B12B01300310F20DF30D5E
:10075800FF3E031DA92B0130F607F31FB42BB52B61
:10076800A82B73087502031DBB2B72087402031CA7
:10077800BE2BBF2BC52B7208F4027308031CF503AC
:10078800F50201300310F30CF20CFF3E031DC62BDB
:100798000130F602031DD12BD22BB52B7708031994
:1007A800D62BD72BDC2BF409F509F40A0319F50A23
:1007B8007508F3007408F2000800831203136D1C17
:1007C800E62BE72BF22B3008F6002E08F7002F084F
:1007D800F8000A128A1133250A128A1183120313A8
:1007E800B21FF72BF82BFA2BB101B201B301B401F8
:1007F800142C2030F2000030F300831203132E086B
:10080800F4002F08F5000A128A119E210A128A1193
:10081800013083120313B3070318B40A0030B40776
:100828003408803AF9003208803A7902031D1E2CF8
:1008380031083302031C212C222CFD2B83120313B5
:100848006D18272C282C332C3008F6002E08F700BA
:100858002F08F8000A128A1133250A128A11080093
:10086800831203130C1C392C3A2C652CC2308F00D0
:10087800F7308E007B080319422C432C642C01307E
:10088800FA0714307A02031C4A2C4B2C642CFA0108
:10089800013083160313A1073C302102031C552C99
:1008A800562C602CA1010130A0073C302002031C0B
:1008B8005E2C5F2C602CA001013083120313EE0024
:1008C8000C1071088A00700E8300FE0E7E0E09005F
:1008D800C23083120313D2000130D30083160313EE
:1008E800200883120313E500E6016508D4006608B2
:1008F800D50083160313210883120313E700E801C8
:100908006708D6006808D7000A128A11D3250A1288
:100918008A11F501F50A02300A128A1119260A12FB
:100928008A11C230F5000030F6000A128A118825B3
:100938000A128A110800F400831203130614F03017
:100948007405F20006080F39720486008614033015
:10095800F200F20BAD2CB02C83120313861074082E
:10096800F20004300310F20DFF3E031DB62CF030E8
:100978007205F30006080F397304860086140330E5
:10098800F200F20BC52CC82C8312031386102930F1
:10099800F200F20BCD2C00000800F40083120313C0
:1009A8000610F0307405F20006080F39720486004C
:1009B80086140330F200F20BDF2CE22C83120313AF
:1009C80086107408F20004300310F20DFF3E031D78
:1009D800E82CF0307205F30006080F39730486001E
:1009E80086140330F200F20BF72CFA2C831203134F
:1009F80086102930F200F20BFF2C0000080041306D
:100A0800F600EE30F500F50B072DF60B072D00006C
:100A180002300A128A11D1240A128A1128300A12C5
:100A28008A11D1240A128A110C300A128A11D1248F
:100A38000A128A1106300A128A11D1240A128A115E
:100A480001300A128A11D1240A128A110730F600DD
:100A58007D30F500F50B2E2DF60B2E2D0800831298
:100A68000313AC01AD01502D2B08A900AA012908D8
:100A7800F2002A08F3007708F4007808F5000A1253
:100A88008A119E210A128A11013083120313AC07BE
:100A98000318AD0A0030AD072C087607A90029080D
:100AA800840083130008AB002B08031D5C2D5D2D0B
:100AB800382D0800FF1B682D83137F188317000843
:100AC800840A0319FF0A080005308A000408840A0A
:100AD80082070034543449344D3445343A34203490
:100AE80025343034323464343A34253430343234B2
:100AF80064340034533454344F345034573441340C
:100B080054344334483400349D2D7608FF0075086A
:100B180084000A128A115E250A128A110A128A11A1
:100B28009F240A128A110130F5070318F60A0030CB
:100B3800F607760883120313FF00750884000A126B
:100B48008A115E250A128A11003A031DAC2DAD2DBB
:100B5800892D0800F601F701721CB32DB42DBA2DAA
:100B68007408F6070318F70A7508F7070130031029
:100B7800F40DF50DFF3E031DBB2D01300310F30CE2
:100B8800F20CFF3E031DC22D72087304031DCD2D08
:100B9800CE2DB02D7708F3007608F2000800543007
:100BA80083120313D9005208DA000030DB00DC019D
:100BB800DD01E301E4015A30CD000030CE005308D6
:100BC800CF005930D0000A128A11F6250A128A116C
:100BD800831203135C085207D80058088400831353
:100BE80080010800831203134F08D100082E4D0816
:100BF800C1004E08C2005130C3005008C4000A1298
:100C08008A11EC200A128A118312031351088400F6
:100C18000A128A1168250A128A11003A031D152E34
:100C2800162EFB2DCD01CE010800F6007603031920
:100C38001E2E1F2E272E7508BF3EF7000030031802
:100C48000130F8002E2E75087F3EF700003003189B
:100C58000130F8007708F90079080A128A11D124BE
:100C68000A128A110800F91B3A2E3B2E3C2E492EF7
:100C7800780983120313A0007909A100A00A0319B7
:100C8800A10A2008F8002108F90008006400800182
:100C9800840A04060319003404064B2E01340800A4
:08400000FF3FFF3FFF3FFF3FC0
:02400E00723FFF
:00000001FF
