:060000000A128A11EC2F28
:10000C0008004130831203139F008E3083160313B4
:10001C009F0008000310720D730DF9007908031D81
:10002C001828192822280030F3000030F200003084
:10003C00F1000030F00083287008F4007108F5001E
:10004C007208F6007308F7001F300310F70CF60C5B
:10005C00F50CF40CFF3E031D2B287408F800F21766
:10006C00FF30F005FF30F105FF30F2050030F305ED
:10007C009630F902F91F432844285C287908803A05
:10008C00973E03184A284B284C2819280130031096
:10009C00F30CF20CF10CF00CFF3E031D4D2801305B
:1000AC00F907031D5A285B284C2873282030790245
:1000BC00031C612862286E2819280130F4000310F3
:1000CC00F00DF10DF20DF30DF40B65280130F90272
:1000DC007908031D72287328632878080319772878
:1000EC0078288328F009F109F209F309F00A0319B9
:1000FC00F10A0319F20A0319F30A08008312031315
:10010C004108CB008030CB054108C2004207D20029
:10011C00C01F91289228932852145208031997282B
:10012C009828A828520A031D9C289D28A528003031
:10013C00C1000030C0000030BF000030BE00C0174E
:10014C00C101B0280030C1000030C0000030BF0039
:10015C000030BE003D088039CB063D08C200420786
:10016C00D300BC1FBA28BB28BC285314530803194E
:10017C00C028C128D128530A031DC528C628CE285B
:10018C000030BD000030BC000030BB000030BA00B5
:10019C00BC17BD01D9280030BD000030BC000030B8
:1001AC00BB000030BA003D083C043B043A04031D7C
:1001BC00E028E128F8280030C1000030C0000030F1
:1001CC00BF000030BE008030C0047F30C1044B083B
:1001DC00C1044108BD004008BC003F08BB003E08FC
:1001EC00BA004D2A5208031DFC28FD2806290030B0
:1001FC00BD000030BC000030BB000030BA004D2AFE
:10020C005208C200C3014308C50053084202C4008F
:10021C00031CC50344087F3ECC0045080318013E6F
:10022C00003ECD004108CA004008C9003F08C80084
:10023C003E08C7000030C1000030C0000030BF00D5
:10024C000030BE000030D1000030D0000030CF00B4
:10025C000030CE00D3017A295308031936293729E7
:10026C0057290130C2000310C70DC80DC90DCA0DA6
:10027C00C20B39290130C2000310BE0DBF0DC00DD9
:10028C00C10DC20B4229D11F4C294D294E293E14B8
:10029C000130C2000310CE0DCF0DD00DD10DC20B0D
:1002AC0050293D084A02031D65293C084902031DDB
:1002BC0065293B084802031D65293A084702031CBF
:1002CC0068296929782951173A08C7023B08031C89
:1002DC003B0FC8023C08031C3C0FC9023D08031C21
:1002EC003D0FCA020130D3071A305302031C7F2979
:1002FC00802932294A0849044804470403198729EC
:10030C008829A7294E14A7290130C2000310BE0D5D
:10031C00BF0DC00DC10DC20B8C29D11F9629972979
:10032C0098293E140130C2000310CE0DCF0DD00D14
:10033C00D10DC20B9A29FF30CC070318CD0AFF3020
:10034C00CD07C01FAA29AB298A29D301D11FAF29F8
:10035C00B029CC29FF304E05C200FF304F05C30039
:10036C00FF305005C4007F305105C50045084404DA
:10037C00430442040319C329C429C7290130D300FB
:10038C00CC293E1CCA29CB29CC29C42953080319D2
:10039C00D029D129022A0130BE07003003180130C0
:1003AC00BF07003003180130C007003003180130BC
:1003BC00C107411CE229E329022A3E08C2003F087A
:1003CC00C3004008C4004108C5000130C600450DFB
:1003DC00C50CC40CC30CC20CC60BED294508C100DE
:1003EC004408C0004308BF004208BE000130CC07DF
:1003FC000318CD0A0030CD074D08803AFF0080303D
:10040C007F02031D0B2AFF304C02031C0E2A0F2AFD
:10041C001D2AFF3083120313CC000030CD000030B6
:10042C00C1000030C0000030BF000030BE0083129D
:10043C0003134D08803AFF0080307F02031D282AE9
:10044C0001304C0203182B2A2C2A392A831203134D
:10045C00CC01CD010030C1000030C0000030BF0025
:10046C000030BE00CB01831203134C08D200521C87
:10047C00402A412A432AC017452A7F30C00552081A
:10048C00C2000310420CC1004B08C104EF28080045
:10049C007308F8008030F805730883120313A0006A
:1004AC002007FA00F21F5B2A5C2A5D2A7A147A086C
:1004BC000319612A622A722A7A0A031D662A672A9C
:1004CC006F2A0030F3000030F2000030F1000030F1
:1004DC00F000F217F3017A2A0030F3000030F2003A
:1004EC000030F1000030F0007708F9008030F90599
:1004FC00790878060319832A842A852A78177708BD
:10050C00A0002007F900F61F8C2A8D2A8E2A791458
:10051C0079080319922A932AA32A790A031D972A88
:10052C00982AA02A0030F7000030F6000030F500C1
:10053C000030F400F617F701AB2A0030F70000305A
:10054C00F6000030F5000030F4007A087902031848
:10055C00B02AB12AD52A781FB42AB52AB72A8030F6
:10056C00F8067A08FB007908FA007B08F900700895
:10057C00FB007408F0007B08F4007108FB007508A0
:10058C00F1007B08F5007208FB007608F2007B088E
:10059C00F6007308FB007708F3007B08F700FB01FB
:1005AC007908A000A1012108A3007A082002A2006A
:1005BC00031CA3032308803AFF0080307F02031D35
:1005CC00E92A1A302202031CEC2AED2A242B730888
:1005DC00720471047004031DF42AF62A0130F72A00
:1005EC000030FB000030F3000030F2000030F1006E
:1005FC000030F0007908FA002A2B7B1C062B072B05
:10060C00102B7B0883120313A0000310200C01385D
:10061C00FB00122B0310FB0C701C152B162B172B2D
:10062C00FB17013083120313A000730DF30CF20CB3
:10063C00F10CF00CA00B1B2B0130FA0779087A0295
:10064C00031C292B2A2B032B781B2D2B2E2B792BC0
:10065C007A08031D322B332B3C2B0030F300003077
:10066C00F2000030F1000030F000A92C7408F00703
:10067C00750803110318013E0319452BF107760881
:10068C0003110318013E03194C2BF20777080311D1
:10069C000318013E0319532BF307731C562B572BCE
:1006AC00312C7B1C5A2B5B2B642B7B088312031382
:1006BC00A0000310200C0138FB00662B0310FB0C70
:1006CC00701C692B6A2B6B2BFB17013083120313E5
:1006DC00A000730DF30CF20CF10CF00CA00B6F2BB3
:1006EC000130FA07312C7308803AFF007708803A02
:1006FC007F02031D8B2B76087202031D8B2B750852
:10070C007102031D8B2B7408700203188E2B8F2B18
:10071C00E82BFF3083120313A000FF30A100FF3041
:10072C00A200FF30A3007408A4007508A500760889
:10073C00A6007708A7007008A4027108031C710FAB
:10074C00A82BA92BA5027208031C720FAE2BAF2B82
:10075C00A6027308031C730FB42BB52BA702240835
:10076C00A00725080318250FBC2BBD2BA1072608B5
:10077C000318260FC22BC32BA20727080318270A1E
:10078C00A3072308F3002208F2002108F100200837
:10079C00F0008030F8067B03FF3AFB007B08031D5A
:1007AC00D82BD92BF62B0130F00700300318013071
:1007BC00F107003003180130F20700300318013044
:1007CC00F307F62B7408F0027508031C750FF10281
:1007DC007608031C760FF2027708031C770FF302DE
:1007EC007308720471047004031DFD2BFE2B2D2C59
:1007FC007B08031D022C032C2D2C0030F300003041
:10080C00F2000030F1000030F000A92C013083120E
:10081C000313A0000310F00DF10DF20DF30DA00B5E
:10082C00102CFB1F1A2C1B2C1C2C70147B1C1F2C2B
:10083C00202C242C03147B0DFB00262C0310FB0D09
:10084C007A0803192A2C2B2C2D2C0130FA02F21FBA
:10085C00302C312C0C2CF901FB1F352C362C442C54
:10086C007B087F3903193B2C3C2C3F2C0130F900C1
:10087C00442C701C422C432C442C3C2C790803191E
:10088C00482C492C7D2C0130F00700300318013026
:10089C00F107003003180130F20700300318013063
:1008AC00F307731C5A2C5B2C7D2C700883120313DA
:1008BC00A0007108A1007208A2007308A300013007
:1008CC00A400230DA30CA20CA10CA00CA40B672C50
:1008DC002308F3002208F2002108F1002008F000A0
:1008EC007A0A03197A2C7B2C7D2C0130FA077A0AB0
:1008FC000319812C822C872C7A08031D862C872CBB
:10090C00952C0030F3000030F2000030F100003084
:10091C00F0007A08031D932C942C952CF8017A1C6A
:10092C00982C992C9B2CF2179D2C7F30F2057A0871
:10093C0083120313A0000310200CF300F81FA72C44
:10094C00A82CA92CF3170800831203132308AD005D
:10095C008030AD052308A8002807B300A21FB72CD0
:10096C00B82CB92C331433080319BD2CBE2CCD2C48
:10097C00330A031DC22CC32CCB2C0030A300003037
:10098C00A2000030A1000030A000A217D52C00302E
:10099C00A3000030A2000030A1000030A000270806
:1009AC008039AD062708A8002807B200A61FDF2C47
:1009BC00E02CE12C321432080319E52CE62CF52C32
:1009CC00320A031DEA2CEB2CF32C0030A70000306C
:1009DC00A6000030A5000030A400A617FD2C0030A6
:1009EC00A7000030A6000030A5000030A40032089B
:1009FC000319012D022D072D3308031D062D072D7C
:100A0C00102D0030A3000030A2000030A1000030F7
:100A1C00A000EB2F2008F00026080A168A11EB26FE
:100A2C000A128A11710883120313B9007008B800F6
:100A3C003808A800A901AA01AB012B08B1002A08AB
:100A4C00B0002908AF002808AE003908A800A90199
:100A5C00AA01AB012B08B7002A08B6002908B5007B
:100A6C002808B4002108F00025080A168A11EB2684
:100A7C000A128A11710883120313B9007008B800A6
:100A8C003808A800A901AA01AB012808AE0729085B
:100A9C0003110318013E0319542DAF072A08031143
:100AAC000318013E03195B2DB0072B080311031823
:100ABC00013E0319622DB1073908A800A901AA014A
:100ACC00AB012808B407290803110318013E0319C8
:100ADC00702DB5072A0803110318013E0319772D51
:100AEC00B6072B0803110318013E03197E2DB70717
:100AFC002208F00024080A168A11EB260A128A1121
:100B0C00710883120313B9007008B8003808A800E4
:100B1C00A901AA01AB012808AE0729080311031883
:100B2C00013E03199A2DAF072A0803110318013E41
:100B3C000319A12DB0072B0803110318013E03194B
:100B4C00A82DB1073908A800A901AA01AB012808F2
:100B5C00B407290803110318013E0319B62DB50774
:100B6C002A0803110318013E0319BD2DB6072B08E3
:100B7C0003110318013E0319C42DB7070830A80050
:100B8C000310AE0DAF0DB00DB10DA80BC62D210885
:100B9C00F00024080A168A11EB260A128A11710831
:100BAC0083120313B9007008B8003808A80039087C
:100BBC00A900AA01AB012808AE07290803110318E4
:100BCC00013E0319EA2DAF072A0803110318013E51
:100BDC000319F12DB0072B0803110318013E03195B
:100BEC00F82DB1072008F00025080A168A11EB260B
:100BFC000A128A11710883120313B9007008B80025
:100C0C003808A8003908A900AA01AB012808AE07CA
:100C1C00290803110318013E0319152EAF072A08E2
:100C2C0003110318013E03191C2EB0072B080311E6
:100C3C000318013E0319232EB1070830A800031036
:100C4C00AE0DAF0DB00DB10DA80B252E2008F00088
:100C5C0024080A168A11EB260A128A1171088312CB
:100C6C000313B9007008B8003808A8003908A900A7
:100C7C00AA01AB012808AE07290803110318013E8D
:100C8C000319492EAF072A0803110318013E031953
:100C9C00502EB0072B0803110318013E0319572ED1
:100CAC00B1072108F00026080A168A11EB260A1251
:100CBC008A11710883120313B9007008B800380840
:100CCC00A8003908A900AA01AB012808B407290813
:100CDC0003110318013E0319742EB5072A080311DA
:100CEC000318013E03197B2EB6072B0803110318BA
:100CFC00013E0319822EB7072208F00025080A16B8
:100D0C008A11EB260A128A11710883120313B90097
:100D1C007008B8003808A8003908A900AA01AB016E
:100D2C002808B407290803110318013E03199F2E44
:100D3C00B5072A0803110318013E0319A62EB6079E
:100D4C002B0803110318013E0319AD2EB707220817
:100D5C00F00026080A168A11EB260A128A1171086D
:100D6C0083120313B9007008B8003808A8003908BA
:100D7C00A900AA01AB0108300310A80DA90DAA0DFA
:100D8C00AB0DFF3E031DC22E2808B4072908031122
:100D9C000318013E0319D32EB5072A0803110318B3
:100DAC00013E0319DA2EB6072B0803110318013E76
:100DBC000319E12EB7072E08A8002F08A900300848
:100DCC00AA003108AB0018300310AB0CAA0CA90C0C
:100DDC00A80CFF3E031DEA2E2808B40729080311AE
:100DEC000318013E0319FB2EB5072A08031103183B
:100DFC00013E0319022FB6072B0803110318013EFD
:100E0C000319092FB7070830A8000310AE0DAF0D5A
:100E1C00B00DB10DA80B0B2F33083207A800A90198
:100E2C00A90D2808823EB80029080318013EFF3E90
:100E3C00B9003D2F0130A8000310B40DB50DB60D4F
:100E4C00B70DA80B222FB11F2C2F2D2F2E2F3414A2
:100E5C000130A8000310AE0DAF0DB00DB10DA80BF5
:100E6C00302FFF30B8070318B90AFF30B907B61F87
:100E7C00402F412F202FB201B11F452F462F622F3B
:100E8C00FF302E05A800FF302F05A900FF303005DC
:100E9C00AA007F303105AB002B082A042904280452
:100EAC000319592F5A2F5D2F0130B200622F341CB9
:100EBC00602F612F622F5A2F32080319662F672F6C
:100ECC00982F0130B407003003180130B5070030FB
:100EDC0003180130B607003003180130B707371C70
:100EEC00782F792F982F3408A8003508A9003608D8
:100EFC00AA003708AB000130AC002B0DAB0CAA0CD0
:100F0C00A90CA80CAC0B832F2B08B7002A08B60031
:100F1C002908B5002808B4000130B8070318B90A2D
:100F2C000030B9073908803AFF0080307F02031D7A
:100F3C00A12FFF303802031CA42FA52FB02F7F3018
:100F4C0083120313B7008030B6000030B5000030B8
:100F5C00B400E12F831203133908803AFF0080306C
:100F6C007F02031DBB2F013038020318BE2FBF2F89
:100F7C00CB2F003083120313B7000030B6000030C3
:100F8C00B5000030B400AD01E12F83120313380813
:100F9C00B300FF30B405FF30B5057F30B605003027
:100FAC00B705331CDA2FDB2FDC2FB6173308A8005C
:100FBC000310280CB7002D08B7043708A300360817
:100FCC00A2003508A1003408A00008008312031306
:100FDC00E601E701E801E901EA018313A03084008E
:100FEC00C0300A168A11EF250A128A1183010A12DF
:040FFC008A15402EE4
:10100400F3008312031306147308F1000430031071
:10101400F10CFF3E031D092871080A168A111227D4
:101024000A128A158312031386140430F2003D3029
:10103400F100F10B1B28F20B1B2820288312031349
:10104400861073080F390A168A1112270A128A1594
:101054008312031386140430F2003D30F100F10BC7
:101064003128F20B31283628831203138610080026
:101074007008710403193F2840286D280130F400DA
:101084004C2801300310F00DF10DFF3E031D4428E0
:101094000130F407F11F4F285028432871087302C8
:1010A400031D562870087202031C59285A28602808
:1010B4007008F2027108031CF303F30201300310F9
:1010C400F10CF00CFF3E031D61280130F402031DF6
:1010D4006C286D2850287308F1007208F00008008D
:1010E400F401F50170087104031979287A28AF28EE
:1010F4000130F600862801300310F00DF10DFF3E9B
:10110400031D7E280130F607F11F89288A287D28CF
:1011140001300310F40DF50DFF3E031D8B287108FB
:101124007302031D972870087202031C9A289B28D7
:10113400A2287008F2027108031CF303F30274146A
:1011440001300310F10CF00CFF3E031DA328013005
:10115400F602031DAE28AF288A287508F10074082A
:10116400F00008000030FC000030FB000030FA0002
:101174000030F900701CBF28C028D7287408F9076C
:10118400750803110318013E0319C928FA077608E4
:1011940003110318013E0319D028FB077708031134
:1011A4000318013E0319D728FC070130F800031087
:1011B400F40DF50DF60DF70DF80BD92801300310D9
:1011C400F30CF20CF10CF00CFF3E031DE128730844
:1011D400720471047004031DF028F128BC287C08F3
:1011E400F3007B08F2007A08F1007908F0000800A7
:1011F400F901FA01760884008313000884000A16B2
:101204008A1100200A128A152A3A031D0A290B2979
:1012140037297608840001308007770884000008A5
:10122400FF00023080077F0884000008F900840A68
:101234000008FA0048297A08F1007908F0000A3019
:10124400F2000030F3000A168A119F260A128A154A
:1012540078087007F9000030031801307107FA00AC
:101264007608840001308313800776088400000820
:1012740084000A168A1100200A128A15D03EF8004A
:101284000A307802031C472948291D297A08F700E7
:101294007908F6000800831203136A1C52295329A3
:1012A4005E292A08A0002808A1002908A2000A161D
:1012B4008A1167270A128A1583120313AC1F632944
:1012C40064296629AB01AC01AD01AE01802920304F
:1012D400F0000030F100831203132808F2002908FB
:1012E400F3000A128A1568230A128A150130831240
:1012F4000313AD070318AE0A0030AE072E08803A78
:10130400FD002C08803A7D02031D8A292B082D023A
:10131400031C8D298E296929831203136A189329C2
:1013240094299F292A08A0002808A1002908A200BE
:101334000A168A1167270A128A15080083120313F2
:10134400A6000030AA000030A9000030A800003038
:10135400A700AB0126080A168A11C4260A128A15A8
:10136400700883120313A2007108A300A401A5014D
:101374002208A707230803110318013E0319C329F0
:10138400A807240803110318013E0319CA29A90751
:10139400250803110318013E0319D129AA070730B0
:1013A40083120313A3007C30A200A20BD729A30B42
:1013B400D7290000013083120313AB070A302B0234
:1013C400031CE529E629AC290030F3000030F200C3
:1013D4000030F1000A30F0002A08F7002908F6006E
:1013E4002808F5002708F4000A128A1502220A12B6
:1013F4008A15710883120313A1007008A000080065
:101404000030FC000030FB000030FA000030F9002E
:1014140073087204710470040319112A122A5D2AD4
:101424000130FD00202A0130F8000310F00DF10D09
:10143400F20DF30DF80B172A0130FD07F31F232AD1
:10144400242A152A0130F8000310F90DFA0DFB0DBA
:10145400FC0DF80B262A73087702031D3B2A720839
:101464007602031D3B2A71087502031D3B2A70088E
:101474007402031C3E2A3F2A4E2A7008F4027108A3
:10148400031C710FF5027208031C720FF602730835
:10149400031C730FF702791401300310F30CF20CE0
:1014A400F10CF00CFF3E031D4F2A0130FD02031D19
:1014B4005C2A5D2A242A7C08F3007B08F2007A085F
:1014C400F1007908F0000800013083120313B5001D
:1014D4006708B4006608B3001F30B6000030B700D8
:1014E40083160313BF01AC2AFF30B6070318B70AEB
:1014F400FF30B7073608A03E84000A30F000003001
:10150400F1003208F3003108F2000A128A153A2079
:101514000A128A157008303E831380008312031365
:10152400B501FF30B3070318B40AFF30B4070A301B
:10153400F0000030F1003208F3003108F2000A1222
:101544008A1572200A128A15710883120313B200D5
:101554007008B1008312360837040319B22AB32A7B
:10156400BE2A31083204031DB82AB92A762A35085E
:10157400031DBD2ABE2A762A2F08A8003008A90018
:101584003608A03EAA003408AC003308AB000A12A7
:101594008A154D210A128A15080083120313A90122
:1015A400A31FD52AD62AE32AA009A109A209A309BF
:1015B400A00A0319A10A0319A20A0319A30A0130F4
:1015C400A900A71FE62AE72AF42AA409A509A6095F
:1015D400A709A40A0319A50A0319A60A0319A70A45
:1015E4000130A9060030AD000030AC000030AB0083
:1015F4000030AA0023082204210420040319032B29
:10160400042B4F2B0130A800122B0130FD000310D6
:10161400A00DA10DA20DA30DFD0B092B0130A807F0
:10162400A31F152B162B072B0130FD000310AA0D49
:10163400AB0DAC0DAD0DFD0B182B23082702031DBC
:101644002D2B22082602031D2D2B21082502031D04
:101654002D2B20082402031C302B312B402B200877
:10166400A4022108031C210FA5022208031C220F37
:10167400A6022308031C230FA7022A140130031017
:10168400A30CA20CA10CA00CFF3E031D412B0130A6
:10169400A802031D4E2B4F2B162B29080319532B7D
:1016A400542B5F2BAA09AB09AC09AD09AA0A03198B
:1016B400AB0A0319AC0A0319AD0A2D08A3002C08C0
:1016C400A2002B08A1002A08A000080072087304D5
:1016D40003196D2B6E2B742B72087304031D732B6B
:1016E400742B7B2B70080A128A1106200A128A15A1
:1016F400012C7208093EF40073080318013E003EF1
:10170400F500740884008317751C83130008F60021
:10171400840A0008F700760877040319922B932BA8
:10172400C52B7208093EF40073080318013E003EFD
:10173400F500740884008317751C83130008F600F1
:10174400840A0008F7007208023EF80073080318C0
:10175400013E003EF900780884008317791C831346
:101764000008FA00840A0008FB007B08803AFC00A9
:101774007708803A7C02031DC12B76087A0203188D
:10178400C42BC52B012C720884008317731C83138C
:101794000008F400840A0008F5007208023EF6000E
:1017A40073080318013E003EF7007608840083178F
:1017B400771C831300087407F9007508F8000318F0
:1017C400F80A801FE62BF8037808FA0079088400E9
:1017D40083177A1C8313700880007208023EF40099
:1017E40073080318013E003EF50074088400831753
:1017F400751C831301308007840A0318800A0800CB
:10180400F80078080319072C082C1C2CF31F0B2C48
:101814000C2C1C2C7009FA007109FB007209FC00E5
:101824007309FD00FA0A0319FB0A0319FC0A0319D8
:10183400FD0A242C7308FD007208FC007108FB00EB
:101844007008FA007308720471047004031D2B2CD1
:101854002C2C352C0030F3000030F2000030F10065
:101864000030F000B52C9630F900432C0130F90714
:1018740001300310FD0CFC0CFB0CFA0CFF3E031DA5
:101884003B2CFE307D05031D482C492C382C632C41
:101894000130F9070130FA07003003180130FB0763
:1018A400003003180130FC07003003180130FD0735
:1018B40001300310FD0CFC0CFB0CFA0CFF3E031D65
:1018C4005B2CFF307D05031D682C692C4A2C752C7C
:1018D4000130F9020130F4000310FA0DFB0DFC0D88
:1018E400FD0DF40B6E2CFC1B782C792C7F2C023014
:1018F400790203187E2C7F2C6A2C7918822C832C75
:101904008B2CFF30FA05FF30FB057F30FC05FF30E0
:10191400FD050310F90C7908F400F501F601F7014F
:1019240018300310F40DF50DF60DF70DFF3E031DF1
:10193400932C7408FA047508FB047608FC047708F1
:10194400FD0478080319A72CA82CAD2CF31FAB2C8D
:10195400AC2CAD2CFD177D08F3007C08F2007B084D
:10196400F1007A08F00008000330831203135502D3
:10197400FC3003195402031CC02CC12CC42CD40108
:10198400D5016D2D00305502063003195402031899
:10199400CC2CCD2CD22CD030D4000730D5006D2DDA
:1019A4005408F0005508F100F201F30100300A1266
:1019B4008A1502240A128A15730883120313AB00D2
:1019C4007208AA007108A9007008A8004430AF008A
:1019D4007F30AE00C030AD000030AC000A168A1172
:1019E4007B260A128A15831203132B08BD002A08CA
:1019F400BC002908BB002808BA004630A3001C30EC
:101A0400A2004030A1000030A0005408F0005508A6
:101A1400F100F201F30100300A128A1502240A12BD
:101A24008A15730883120313A7007208A6007108AD
:101A3400A5007008A4000A128A11AA240A128A15A1
:101A4400831203132308C1002208C0002108BF0029
:101A54002008BE000A128A1184200A128A158312F1
:101A640003133D08D9003C08D8003B08D7003A08C6
:101A7400D6005908BD005808BC005708BB005608DA
:101A8400BA004830C100F430C0002430BF00003038
:101A9400BE000A128A1184200A128A1583120313C3
:101AA4003D08DD003C08DC003B08DB003A08DA00B6
:101AB4005D08F3005C08F2005B08F1005A08F000CE
:101AC4000A128A1110200A128A157108831203134C
:101AD400D5007008D4000800831203133A08840068
:101AE4008313000884000A168A1100200A128A153A
:101AF400253A031D7E2D7F2D262E3A0884000130C1
:101B04008007E601E7010030EA00FF30E800FF301B
:101B1400E900C201A32D6A143A0884000130800749
:101B2400A32D0130C200A32D3A08840000088400CC
:101B34000A168A1100200A128A152D3A03198D2DCE
:101B4400932D42080319A72DA82D962D3A08F600C7
:101B54003B08F7000A128A15FA200A128A15770838
:101B640083120313E7007608E600E71FBA2DBB2DA6
:101B7400C12D6A14E609E709E60A0319E70A3A08D7
:101B8400840083130008C300430884000A168A11E2
:101B940000200A128A15753A031DD12DD22DFE2D6F
:101BA4003B0884000008FF00023080077F0884009F
:101BB4000008BE00840A0008BF003A0884004308F5
:101BC400013E8000F32D3808AF003908B0003F080B
:101BD400B2003E08B1000A128A1566220A128A155A
:101BE4003F2E430884000A168A1100200A128A151F
:101BF400753A0319E52DFE2D3A0884000008840087
:101C04000A168A1100200A128A15253A031D0B2E82
:101C14000C2E1E2E3A088400013080072530F00077
:101C24000030F1003808F2003908F3000A128A156E
:101C340068230A128A153F2E831203133A0884007C
:101C44000130831380073F2E3A0884000008840083
:101C54000A168A1100200A128A15BC00BD013C082C
:101C6400F0003D08F1003808F2003908F3000A12C8
:101C74008A1568230A128A151E2E08008316031378
:101C8400860107110514881408158312031307111C
:101C94000A128A1107200A128A150A168A11922733
:101CA4000A128A1500300A168A110B260A128A159E
:101CB40083160313D7005B305702031C622E632E76
:101CC4006D2E1E30D7001E30F20000300A168A1125
:101CD40020260A128A1500300A128A15A0210A1237
:101CE4008A1583120313210883160313D300831266
:101CF4000313200883160313D20000308312031346
:101D0400A3000030A2000330A100FF30A00083161E
:101D14000313520883120313DE00831603135308BC
:101D240083120313DF00E001E101FF30E20003301E
:101D3400E3000030E4000030E5005E08E2025F08E2
:101D4400031C5F0FA62EA72EE3026008031C600F7E
:101D5400AC2EAD2EE4026108031C610FB22EB32E2B
:101D6400E5026508F3006408F2006308F100620804
:101D7400F0000030F7000030F6000030F500643069
:101D8400F4000A128A15B4200A128A157308831201
:101D94000313A7007208A6007108A5007008A40028
:101DA4000A128A15CF220A128A15831203132108F4
:101DB40083160313D6008312031320088316031318
:101DC400D500530883120313D50083160313520856
:101DD40083120313D4000A128A15B6240A128A1530
:101DE40083120313550883160313D10083120313BC
:101DF400540883160313D000831203138818032F87
:101E0400042F2D2FA33083120313DF005430DE0080
:101E1400DE0B0A2FDF0B0A2F00008312031388182E
:101E2400142F152F2D2F5A3083160313570203181E
:101E34001C2F1D2F1F2F0530D7075708F200003025
:101E44000A168A1120260A128A1583120313881C83
:101E54002C2F2D2F272F0819302F312F5A2FA33035
:101E640083120313DF005430DE00DE0B372FDF0B49
:101E7400372F0000831203130819412F422F5A2FC2
:101E84000630831603135702031C492F4A2F4C2F85
:101E94000530D7025708F20000300A168A112026AE
:101EA4000A128A1583120313081D592F5A2F542F0F
:101EB4008316031357080A3ED4005708FF00560838
:101EC400031D662F55087F02031C692F6A2F6E2F8E
:101ED400831203130715862F540883120313DE009D
:101EE400DF015F08831603135602031D7F2F83123D
:101EF40003135E08831603135502031C822F832FDA
:101F0400862F831203130711C0308312C9000130D6
:101F1400CA0083160313560883120313CC008316D6
:101F24000313550883120313CB00831603135708B6
:101F340083120313DE00DF015E08CD005F08CE00CC
:101F44000A168A1158260A128A1580300A168A112E
:101F5400C8270A128A15C030F4000A168A11F72518
:101F64000A128A15C03083120313C9001730CA003D
:101F740083160313510883120313CC00831603132F
:101F8400500883120313CB008316031357088312DC
:101F94000313DE00DF015E08CD005F08CE00831668
:101FA4000313540883120313E000E1016008CF0017
:101FB4006108D0000A168A1158260A128A15C03000
:101FC4000A168A11C8270A128A15C030F4000A16A4
:101FD4008A11F7250A128A15023083120313E000CE
:101FE4004530DF00A930DE00DE0BF62FDF0BF62FC5
:101FF400E00BF62F6D2E0A128A11002810308A0089
:102004000408840A820700344C3449343A342534B1
:102014003234753425342534203420342034533478
:10202400453454343A342534323475342534253423
:10203400203400344C34753478343A3425342D3417
:1020440034347534203452343A34253432347534CB
:0A2054002D34253432347534003485
:102BDE0064008001840A0406031900340406F02DF3
:102BEE00022E7408840000080A128A1502200A16A2
:102BFE008A110130F4077408840083130008031D42
:102C0E00092E0A2EF82D0800F00064008316031713
:102C1E008C18122E132E0C2E7008831203178D0093
:102C2E003F30831603178C050C14831203170C0800
:102C3E000800F30073080A168A110B260A168A1169
:102C4E00720603192B2E2C2E342E7208F0007308E8
:102C5E000A168A113C270A168A11080083120313DA
:102C6E004608C800472E4408B8004508B900483049
:102C7E00BA004708BB000A128A156E250A168A1179
:102C8E0083120313480884000A168A1100200A16BC
:102C9E008A11003A031D542E552E3A2EC401C50139
:102CAE0008004B3083120313D2004908D3000030C2
:102CBE00D400D501D601DC01DD015330C400003053
:102CCE00C5004A08C6005230C7000A168A113526BA
:102CDE000A168A118312031355084907D1005108A9
:102CEE008400831380010800803083120313AB0627
:102CFE002F08F3002E08F2002D08F1002C08F0002A
:102D0E002B08F7002A08F6002908F5002808F40019
:102D1E000A128A114E220A168A117308831203139D
:102D2E00AB007208AA007108A9007008A80008007C
:102D3E00F401F501701CA42EA52EAB2E7208F4071B
:102D4E000318F50A7308F50701300310F20DF30DA1
:102D5E00FF3E031DAC2E01300310F10CF00CFF3EB4
:102D6E00031DB32E70087104031DBE2EBF2EA12E9F
:102D7E007508F1007408F0000800F400C5308312E5
:102D8E0003139F057408F20002300310F20DFF3E8C
:102D9E00031DCC2E0310720D9F040430F3003D3042
:102DAE00F200F20BD82EF30BD82EDD2E8312031366
:102DBE001F151F19E32EE42EE02E1E08F1008316B8
:102DCE0003131E08F0000800F800F401F501700866
:102DDE00F200F3017208F6007308F700781CF82E63
:102DEE00F92EFF2E7608F4070318F50A7708F50773
:102DFE0001300310F60DF70DFF3E031D002F0310DB
:102E0E00F80C7808031D0C2F0D2FF52E7508F10008
:102E1E007408F0000800F0007018162F1A2F831295
:102E2E00031306161D2F831203130612F018202FFC
:102E3E00242F831203138616272F83120313861251
:102E4E0070192A2F2E2F831203130617312F831278
:102E5E0003130613F019342F382F8312031386171A
:102E6E003B2F8312031386130800F10083160317FA
:102E7E008C18422F432F3D2F7108831203178D009C
:102E8E0070088C003F30831603178C0583120313D2
:102E9E0003108B1F532F542F552F03148B13831690
:102EAE0003170C1555308D00AA308D008C140C11A3
:102EBE0083120313031C642F652F662F8B170800D4
:102ECE0083120313A601A701842F2508A300A401D2
:102EDE002308F0002408F1002108F2002208F30074
:102EEE000A128A1568230A168A11013083120313F7
:102EFE00A6070318A70A0030A70726082007A30075
:102F0E002308840083130008A5002508031D902FB5
:102F1E00912F6C2F080000300A168A1112270A16FC
:102F2E008A114130F500EE30F400F40B9C2FF50BB6
:102F3E009C2F000002300A168A11C8270A168A1121
:102F4E0028300A168A11C8270A168A110C300A165A
:102F5E008A11C8270A168A1106300A168A11C8273E
:102F6E000A168A1101300A168A11C8270A168A1102
:102F7E000730F5007D30F400F40BC32FF50BC32F93
:102F8E000800F3008312031306107308F1000430D7
:102F9E000310F10CFF3E031DCF2F71080A168A1184
:102FAE0012270A168A118312031386140430F200B4
:102FBE003D30F100F10BE12FF20BE12FE62F8312E2
:102FCE000313861073080F390A168A1112270A1670
:102FDE008A118312031386140430F2003D30F1007F
:102FEE00F10BF72FF20BF72FFC2F83120313861022
:022FFE000800C9
:08400000FF3FFF3FFF3FFF3FC0
:02400E00723FFF
:00000001FF
