:100000000A128A11EC2F00308A000408840A820741
:1000100000344234723469346734683474342034C0
:1000200020343A34203425342D3433347534253497
:1000300025342034203400344134443443342034D3
:10004000563461346C3420343A34203425342D3421
:0A00500034347534203420340034B9
:1002E600080064008001840A040603190034040629
:1002F600752901300A128A1188220A128A110D30D4
:10030600F400FB30F300F30B8629F40B86298B29C6
:100316000800F4007403031D912992299A29730891
:100326007F3E0A128A1188220A128A11A7290230F0
:100336007406031D9F29A029A7297308BF3E0A1228
:100346008A1188220A128A110800F501F601BC29D1
:1003560075087307F4007408840000080A128A11ED
:10036600B7220A128A110130F5070318F60A00307F
:10037600F60775087307F4007408840083130008F1
:10038600031DC629C729AB29080083120313460893
:10039600C800DA294408B8004508B9004830BA0050
:1003A6004708BB000A128A1106260A128A1183120E
:1003B6000313480884000A128A1103200A128A11BC
:1003C600003A031DE729E829CD29C401C501080023
:1003D6004B3083120313CE004908CF000030D00003
:1003E600D101D201D801D9014F30C4000030C50077
:1003F6004A08C6004E30C7000A128A11C8210A12DE
:100406008A118312031351084907CD004D08840051
:10041600831380010800F401F501701C132A142AC5
:100426001A2A7208F4070318F50A7308F50701304B
:100436000310F20DF30DFF3E031D1B2A01300310BE
:10044600F10CF00CFF3E031D222A70087104031DF7
:100456002D2A2E2A102A7508F1007408F0000800CB
:10046600F0007018372A3B2A8312031308163E2A17
:10047600831203130812F018412A452A8312031324
:100486008816482A83120313881270194B2A4F2A9A
:10049600831203130817522A831203130813F01941
:1004A600552A592A8312031388175C2A83120313C9
:1004B6008813080083120313A601A7017A2A2508C8
:1004C600A300A4012308F0002408F1002108F2008B
:1004D6002208F3000A128A116C250A128A110130C9
:1004E60083120313A6070318A70A0030A7072608D6
:1004F6002007A3002308840083130008A50025080D
:10050600031D862A872A622A0800F2008312031333
:1005160008117208F10004300310F10CFF3E031DB0
:100526008F2A71080A128A1133220A128A1183123B
:10053600031388154230F100F10B9F2A0000831245
:100546000313881172080A128A1133220A128A11B9
:100556008312031388154230F100F10BB02A000014
:100566008312031388110800F2008312031308157F
:100576007208F10004300310F10CFF3E031DBE2A81
:1005860071080A128A1133220A128A11831203137E
:1005960088154230F100F10BCE2A000083120313B6
:1005A600881172080A128A1133220A128A118312DA
:1005B600031388154230F100F10BDF2A0000831285
:1005C600031388110800700871040319EB2AEC2A3A
:1005D600192B0130F400F82A01300310F00DF10D4B
:1005E600FF3E031DF02A0130F407F11FFB2AFC2A07
:1005F600EF2A71087302031D022B70087202031C96
:10060600052B062B0C2B7008F2027108031CF30352
:10061600F30201300310F10CF00CFF3E031D0D2B0D
:100626000130F402031D182B192BFC2A7308F10064
:100636007208F0000800F401F5017008710403194E
:10064600252B262B5B2B0130F600322B01300310B5
:10065600F00DF10DFF3E031D2A2B0130F607F11FA9
:10066600352B362B292B01300310F40DF50DFF3EEB
:10067600031D372B71087302031D432B700872028A
:10068600031C462B472B4E2B7008F2027108031CE5
:10069600F303F302741401300310F10CF00CFF3E67
:1006A600031D4F2B0130F602031D5A2B5B2B362BF5
:1006B6007508F1007408F00008000030FC000030F6
:1006C600FB000030FA000030F900701C6B2B6C2B1D
:1006D600832B7408F907750803110318013E0319E3
:1006E600752BFA07760803110318013E03197C2BB4
:1006F600FB07770803110318013E0319832BFC0738
:100706000130F8000310F40DF50DF60DF70DF80B9A
:10071600852B01300310F30CF20CF10CF00CFF3EAC
:10072600031D8D2B7308720471047004031D9C2B2A
:100736009D2B682B7C08F3007B08F2007A08F100F9
:100746007908F000080000300A128A1133220A12D2
:100756008A118230F600DD30F500F50BB02BF60B72
:10076600B02BB52B03300A128A1188220A128A117D
:100776002130F6007630F500F50BBF2BF60BBF2BBC
:10078600000003300A128A1188220A128A114830A0
:10079600F6006C30F500F50BCE2BF60BCE2B0000D9
:1007A60003300A128A1188220A128A1102300A12AA
:1007B6008A1188220A128A1128300A128A1188227E
:1007C6000A128A110C300A128A1188220A128A1118
:1007D60006300A128A1188220A128A110A128A110E
:1007E6007C210A128A110800F901FA0176088400B0
:1007F6008313000884000A128A1103200A128A1140
:100806002A3A031D072C082C342C76088400013064
:100816008007770884000008FF00023080077F0801
:1008260084000008F900840A0008FA00452C7A08BA
:10083600F1007908F0000A30F2000030F3000A12E5
:100846008A110E220A128A1178087007F900003000
:10085600031801307107FA0076088400013083130B
:10086600800776088400000884000A128A11032093
:100876000A128A11D03EF8000A307802031C442C72
:10088600452C1A2C7A08F7007908F600080083121E
:100896000313611C4F2C502C5B2C2A08A00028083F
:1008A600A1002908A2000A128A115D220A128A11E1
:1008B60083120313AC1F602C612C632CAB01AC01BB
:1008C600AD01AE017D2C2030F0000030F100831226
:1008D60003132808F2002908F3000A128A116C256E
:1008E6000A128A11013083120313AD070318AE0AE8
:1008F6000030AE072E08803AFD002C08803A7D02B3
:10090600031D872C2B082D02031C8A2C8B2C662C8E
:10091600831203136118902C912C9C2C2A08A0009A
:100926002808A1002908A2000A128A115D220A12CB
:100936008A110800003083120313AB000030AA00AE
:100946000030A9000030A800230822042104200456
:100956000319AE2CAF2CFA2C0130AC00BD2C0130A3
:10096600FD000310A00DA10DA20DA30DFD0BB42CCF
:100976000130AC07A31FC02CC12CB22C0130FD00E6
:100986000310A80DA90DAA0DAB0DFD0BC32C230852
:100996002702031DD82C22082602031DD82C210865
:1009A6002502031DD82C20082402031CDB2CDC2C7A
:1009B600EB2C2008A4022108031C210FA502220803
:1009C600031C220FA6022308031C230FA7022814C8
:1009D60001300310A30CA20CA10CA00CFF3E031DBA
:1009E600EC2C0130AC02031DF92CFA2CC12C2B087F
:1009F600A3002A08A2002908A1002808A0000800D0
:100A0600013083120313B5005E08B4005D08B3001D
:100A16001F30B6000030B70083160313BF01492DFF
:100A2600FF30B6070318B70AFF30B7073608A03EEF
:100A360084000A30F0000030F1003208F30031087B
:100A4600F2000A128A11E6220A128A117008303E52
:100A56008313800083120313B501FF30B307031815
:100A6600B40AFF30B4070A30F0000030F100320853
:100A7600F3003108F2000A128A111E230A128A11A3
:100A8600710883120313B2007008B100831236088E
:100A9600370403194F2D502D5B2D31083204031DE9
:100AA600552D562D132D3508031D5A2D5B2D132D4F
:100AB6002F08A8003008A9003608A03EAA0034086E
:100AC600AC003308AB000A128A114A240A128A11B2
:100AD6000800720873040319712D722D782D72089F
:100AE6007304031D772D782D7F2D70080A128A1145
:100AF60073210A128A11052E7208093EF400730842
:100B06000318013E003EF500740884008317751C27
:100B160083130008F600840A0008F70076087704B5
:100B26000319962D972DC92D7208093EF4007308F6
:100B36000318013E003EF500740884008317751CF7
:100B460083130008F600840A0008F7007208023EC4
:100B5600F80073080318013E003EF9007808840087
:100B66008317791C83130008FA00840A0008FB0027
:100B76007B08803AFC007708803A7C02031DC52D6D
:100B860076087A020318C82DC92D052E720884002E
:100B96008317731C83130008F400840A0008F50009
:100BA6007208023EF60073080318013E003EF70085
:100BB600760884008317771C831300087407F900EE
:100BC6007508F8000318F80A801FEA2DF80378085C
:100BD600FA007908840083177A1C83137008800052
:100BE6007208023EF40073080318013E003EF50049
:100BF600740884008317751C831301308007840AE8
:100C06000318800A0800831203133A08840083132A
:100C1600000884000A128A1103200A128A11253A52
:100C2600031D162E172EBE2E3A08840001308007AB
:100C3600DD01DE010030E100FF30DF00FF30E000C3
:100C4600C2013B2E61143A088400013080073B2E16
:100C56000130C2003B2E3A088400000884000A12C4
:100C66008A1103200A128A112D3A0319252E2B2EDA
:100C7600420803193F2E402E2E2E3A08F6003B0856
:100C8600F7000A128A11F7230A128A1177088312CB
:100C96000313DE007608DD00DE1F522E532E592E7A
:100CA6006114DD09DE09DD0A0319DE0A3A0884004B
:100CB60083130008C300430884000A128A11032024
:100CC6000A128A11753A031D692E6A2E962E3B0862
:100CD60084000008FF00023080077F0884000008B7
:100CE600BE00840A0008BF003A0884004308013E9B
:100CF60080008B2E3808AF003908B0003F08B200DC
:100D06003E08B1000A128A1103250A128A11D72E4B
:100D1600430884000A128A1103200A128A11753ABE
:100D260003197D2E962E3A088400000884000A12C4
:100D36008A1103200A128A11253A031DA32EA42E16
:100D4600B62E3A088400013080072530F0000030C6
:100D5600F1003808F2003908F3000A128A116C25EE
:100D66000A128A11D72E831203133A08840001301F
:100D760083138007D72E3A088400000884000A12DD
:100D86008A1103200A128A11BC00BD013C08F0003A
:100D96003D08F1003808F2003908F3000A128A11FA
:100DA6006C250A128A11B62E08000F30831603131B
:100DB600D1002730D2000514071188018E309F001C
:100DC6008130831203139F000C309700FF30831687
:100DD6000313920004308312031392000A128A113D
:100DE600A6230A128A11203083120313DA00DA0BC3
:100DF600FA2E0000831203131F151F19032F042F49
:100E0600002F1E0883160313D6001E08D5005608A9
:100E160083120313DB00831603135508831203138F
:100E2600DA000310DB0CDA0C0310DB0CDA0C5A08C0
:100E3600950083160313560883120313DB008316EB
:100E46000313550883120313DA000310DB0CDA0CC4
:100E56005A080139DC00DC0E17085C06EF395C061F
:100E66009700831603135508013983120313DA001A
:100E7600DA0EDA0D17085A06DF395A069700831676
:100E8600031352085606031D4A2F51085506031927
:100E96004D2F4E2FDA2F003083120313A30000309C
:100EA600A2000330A100FF30A000831603135508EB
:100EB600F0005608F100F201F3010030F7000030AF
:100EC600F6000030F5006430F4000A128A1160233F
:100ED6000A128A11730883120313A7007208A60068
:100EE6007108A5007008A4000A128A119D240A122E
:100EF6008A1183120313210883160313D400831265
:100F06000313200883160313D300C0308312031380
:100F1600C9001430CA00831603135608831203133C
:100F2600CC0083160313550883120313CB000A1251
:100F36008A11EB210A128A11F301F30A01300A120F
:100F46008A118C210A128A11C030F3000A128A1102
:100F5600A8210A128A11C03083120313C900013076
:100F6600CA0083160313540883120313CC00831696
:100F76000313530883120313CB000A128A11EB21C1
:100F86000A128A11F301F30A02300A128A118C211D
:100F96000A128A11C030F3000A128A11A8210A1215
:100FA6008A11831603135608D2005508D100023061
:100FB60083120313DC004530DB00A930DA00DA0BBC
:100FC600E22FDB0BE22FDC0BE22FF62E0A128A1140
:100FD600002883120313DD01DE01DF01E001E101D8
:100FE6008313A0308400C0300A128A1174210A12B9
:0A0FF6008A1183010A128A11D82E15
:08400000FF3FFF3FFF3FFF3FC0
:02400E007A3FF7
:00000001FF
